:020000040800F2
:100000003013002045010008C91600084D100008F3
:10001000C5160008C1090008F72400080000000008
:10002000000000000000000000000000B51B0008F8
:10003000DD0B0008000000000D190008711D00080C
:100040005F0100085F0100085F0100085F01000810
:100050005F0100085F0100085F0100085F01000800
:100060005F0100085F0100085F0100085F010008F0
:100070005F0100085F0100085F0100085F010008E0
:100080005F0100085F0100085F0100085F010008D0
:100090005F0100085F0100085F0100085F010008C0
:1000A0005F010008AD1E00085F010008D51D0008B3
:1000B000C91E0008991F00085F0100085F010008C1
:1000C0005F0100085F0100085F0100085F01000890
:1000D0005F010008792200085F0100085F01000845
:1000E0005F0100085F0100085F0100085F01000870
:1000F0005F0100085F0100085F0100085F01000860
:100100005F0100085F0100085F0100085F0100084F
:100110005F0100085F0100085F0100085F0100083F
:100120005F0100085F0100085F0100085F0100082F
:10013000DFF80CD000F088FB00480047E54F0008CE
:10014000301300200648804706480047FEE7FEE7D8
:10015000FEE7FEE7FEE7FEE7FEE7FEE7FEE7FEE777
:10016000751D00083101000840EA01039B0703D018
:1001700009E008C9121F08C0042AFAD203E011F8E6
:10018000013B00F8013B521EF9D27047D2B201E0A8
:1001900000F8012B491EFBD270470022F6E710B58C
:1001A00013460A4604461946FFF7F0FF204610BDE5
:1001B000F0B480EA0102D40F4200B2EB410F02D248
:1001C0000246084611464A0042D0C30DDDB2C1F3D3
:1001D000C752AD1A202D35DAC1F3160141F40002E1
:1001E00004B15242C5F1200602FA06F12A41104438
:1001F000B3EBD05F23D0C4B1012DA0EBC35009DC19
:10020000F0BC4FF0004202EAC352DBB200F500003E
:1002100000F034B9400000F1807000EBC350A0F151
:10022000807040EAD170490009E0490841EAC07194
:10023000A0EBC35000F50000400800EBC350F0BC39
:1002400000F013B96142012202EB4101001BF6E705
:10025000F0BC704781F00041AAE780F00040A7E7BA
:1002600080EA010210B502F00043400022D04A00AB
:100270001FD0010E01EB1261C0F35600C2F356020B
:1002800040F4000042F40002A0FB022000047F3989
:10029000140400D0401C50EA124001D44000491E12
:1002A000C2B20C0604EBD010401C4008802A02D0D9
:1002B00003E0002010BD20F00100002900DA00203A
:1002C000184310BD30B480EA010202F0004530F05E
:1002D000004221F0004013D090B1C30DD40DC2F301
:1002E0001601C0F31600E41A41F4000140F40002C4
:1002F0007D34914201D3641C00E04900002C02DAF5
:1003000030BC002070474FF400000023914201D31D
:10031000891A034340084FEA4101F7D151B1914294
:1003200002D14FF0004105E002D24FF0010101E09F
:100330006FF0010103EBC450284430BC00F095B8C5
:10034000C10F80EAE0700844CA079623002100F03C
:1003500095B896230022114600F090B800F00042B4
:1003600020F00040C10DC0F3160040F400007F29CA
:1003700001DA00207047962903DCC1F19601C840DC
:1003800001E096398840002AF4D04042704700F0DE
:10039000004230F000400AD0C10D01F56071C0F399
:1003A000160042EA0151C20840071143704700207D
:1003B00001467047002801DBC0F10040002901DB45
:1003C000C1F1004181427047002801DBC0F10040CB
:1003D000002901DBC1F100418842704730B50B466E
:1003E000014600202022012409E021FA02F59D4265
:1003F00005D303FA02F5491B04FA02F52844151E39
:10040000A2F10102F1DC30BD2DE9F05F05460020CC
:1004100092469B4688460646814640241BE0284675
:1004200041464746224600F030FA53465A46C01A23
:10043000914110D311461846224600F017FA2D1AA2
:1004400067EB01084F4622460120002100F00EFA1A
:1004500017EB00094E41201EA4F10104DFDC4846E1
:1004600031462A464346BDE8F09F0029A8BF7047A1
:10047000401C490008BF20F00100704710B4B0FADA
:1004800080FC00FA0CF050EA010404BF10BC704775
:1004900049B1CCF1200421FA04F411FA0CF118BF8F
:1004A000012121430843A3EB0C01CB1D4FEA00615E
:1004B0004FEA102042BF002010BC704700EBC35031
:1004C00010440029A4BF10BC7047401C490008BF5D
:1004D00020F0010010BC70472DE9FE4F804681EAF4
:1004E0000300C00F0C46009021F0004123F00045AE
:1004F000B8EB0200A94105D24046214690461C4671
:100500000B46024623F00040104347D0270DC7F3A7
:100510000A00C3F30A510290401A019040286BDA96
:10052000C3F3130040F4801B0098924620B10023CF
:10053000D2EB030A63EB0B0B01985946C0F1400262
:10054000504600F093F906460D4650465946019A2A
:1005500000F0ABF910EB08006141002487EA11526A
:1005600084EAE7731A4340D0009A62B3019A012AE1
:100570004FEA075215DC001B61EB02014FF000420D
:1005800002EA0752CDE90042001C41F580113246D3
:100590002B4600F0ABF903B0BDE8F08F4046214692
:1005A000F9E7001B61EB0201001C41F58013001804
:1005B0005B412018A2F5001747EB030140EAD57014
:1005C000B6196D4111E06D084FEA360645EAC0756F
:1005D0004FEA0752001B61EB0201001C41F580113C
:1005E00049084FEA30000019514132462B4603B00A
:1005F000BDE8F04F00F06BB90098012240000023E5
:10060000D0EB020263EBE073009821464FEAE074FE
:10061000B8EB000061EB0401E9E783F000435BE71E
:1006200081F0004158E72DE9FE4F81EA030404F010
:10063000004421F0004100944FF0000B23F00043F0
:1006400050EA01045ED052EA03045BD0C3F30A54BB
:10065000C1F30A552C44A4F2F3340194A0FB0254D4
:10066000C1F3130141F48011C3F3130343F4801366
:1006700001FB024400FB034E840A970A44EA8154BA
:1006800047EA8357A4FB076802958D0A05FB078597
:100690004FEA932C04FB0C542705029D4FEA0658A1
:1006A00047EA1637B5EB08056EEB070C870E920E7E
:1006B00047EA811742EA8312A7FB0201B6EB0B015E
:1006C00064EB00042B0D43EA0C335E1844EB1C5022
:1006D000DA465146E7FB0201C5F313044FEA0B3338
:1006E00043EA14534FEA0432019C43EA0603A4F19F
:1006F0000C040294009CCDE900B400F0F7F803B0BC
:10070000BDE8F08F00200146F9E72DE9F04D81EAC0
:10071000030404F0004B21F0004514464FF0000A9A
:1007200023F0004150EA050220D054EA01021DD016
:10073000C5F30A570246C5F31303C1F31300C1F30F
:100740000A5640F4801543F48013A7EB0608101BEB
:10075000D64608F2FD3873EB050002D308F1010814
:1007600001E092185B41B8F1000F03DA0020014666
:10077000BDE8F08D00204FF48011064684460EE05F
:10078000171B73EB050705D3121B63EB0503064329
:100790004CEA010C49084FEA300092185B4150EADC
:1007A0000107EDD152EA030012D082EA040083EA85
:1007B0000501084305D0101BAB4106D201220023DE
:1007C00006E000224FF0004302E06FF001025310F8
:1007D0001AEB06004CEB085110EB0A0041EB0B0141
:1007E000BDE8F04D00F073B8C1F30A52C1F3130134
:1007F00040F2FF3341F480119A4202DA00200146B0
:10080000704740F233439A42A2F2334202DC524232
:1008100000F03BB800F02AB830B5041E71F10004B6
:1008200004DB4FF00044404264EB0101141E73F1FD
:10083000000405DB1C464FF00043524263EB040307
:10084000994208BF904230BD064C074D06E0E06873
:1008500040F0010394E8070098471034AC42F6D307
:10086000FFF76AFCA8700008C8700008202A04DBA3
:10087000203A00FA02F1002070479140C2F12003B3
:1008800020FA03F3194390407047202A04DB203AF2
:1008900021FA02F00021704721FA02F3D040C2F1A0
:1008A00020029140084319467047202A06DBCB17E7
:1008B000203A41FA02F043EAE07306E041FA02F31B
:1008C000D040C2F12002914008431946704710B54C
:1008D000141E73F1000408DA401C41F10001921863
:1008E0005B411A4301D120F0010010BD2DE9F04D0C
:1008F00092469B4611B1B1FA81F202E0B0FA80F261
:1009000020329046FFF7B2FF04460F4640EA0A0045
:1009100041EA0B0153465A46084313D0114653EAA5
:10092000010019D0C8F140025046FFF7AEFF05465E
:100930000E46504659464246FFF798FF084305D0F9
:10094000012004E020463946BDE8F08D0020054333
:1009500046EAE0762C4337430A986305E40AA0EBA5
:1009600008000022FD0A44EA47540A3002D500205C
:100970000146E9E7010510196941DDE9084500195B
:100980006941BDE8F04DA2E708B50121042000F05F
:10099000DFFF4FF48050ADF8000010208DF8030009
:1009A00003208DF802006946044800F0DDF94FF499
:1009B0008051024800F06CFA08BD000000080140B8
:1009C00000BFFEE710B500241548006820F4704011
:1009D000134908600846006840F48040086004E05D
:1009E000601CC4B2012002F057FA0E48006808B13A
:1009F000642CF5DB642C01DB012010BD002404E035
:100A0000601CC4B2012002F047FA0648006808B929
:100A1000642CF5DB642C01DB0120EEE70020ECE721
:100A2000041801403401234208B50121402000F0A0
:100A30008FFF4FF40050ADF8000010208DF8030038
:100A400003208DF802006946064800F08DF94FF446
:100A50000051044800F01EFA00F0A0F8FFF7B2FFC2
:100A600008BD00000018014010B5002404E0601C1F
:100A7000C4B2012002F010FA0D48006808B1642CDD
:100A8000F5DB002404E0601CC4B2012002F004FA8B
:100A90000748006808B9642CF5DB282002F0FCF94F
:100AA0000348006808B1012010BD0020FCE70000E9
:100AB0003401234270B50024002506E06006040ED0
:100AC000FFF7D2FF0443681CC5B2082DF6DB2046B1
:100AD00070BD00002DE9FC4104460D460020286051
:100AE000206000F05BF8FFF76DFF00284FD1002673
:100AF00005E0FFF7DFFF0DF80600701CC6B2052EFB
:100B0000F7DB9DF800009DF8011008449DF80210E5
:100B100008449DF803100844C7B29DF80400B84289
:100B20001AD19DF801109DF8002001EB0220FFF77B
:100B300007FC80461849FFF7C5FB28609DF80310A5
:100B40009DF8022001EB0220FFF7FAFB80461249D4
:100B5000FFF7B8FB20601DE09DF801109DF8002014
:100B600001EB0220FFF7ECFB80460B49FFF7AAFBE5
:100B700028609DF803109DF8022001EB0220FFF78A
:100B8000DFFB80460449FFF79DFB206002E0012067
:100B9000BDE8FC810020FBE70000204110B50C48B7
:100BA000006820F470400A4908600846006840F474
:100BB000405008600020074908601E2002F050F9EC
:100BC00001200549C1F8B4011E2002F065F910BDED
:100BD00004180140B4012342000023427047000082
:100BE00008B51048007801280DD10FA1124801F076
:100BF000A7FC11484EF67D731F228C210090002027
:100C000000F04AF90CE00DA10B4801F099FC0A48EC
:100C10004EF67D731F228C210090002000F03CF9DD
:100C200008BD000048000020574946493A436F6E0E
:100C30006E65637400000000840000205749464937
:100C40003A4E6F7420436F6E0000000008B52F48C5
:100C5000007801284CD12E4803782E4802782EA126
:100C6000314801F06DFC30484EF67D731F22502153
:100C70000090002000F010F92C48007825490978F0
:100C8000884242D12A4800782149097888423CD1DB
:100C90000120284908604FF47A7002F0E1F8002042
:100CA0002549C1F8B0012549087040F2E73001F04C
:100CB000F3F823A11C4801F043FC1B484EF67D735A
:100CC0001F2214210090002000F0E6F84FF4FA7083
:100CD00002F0C6F81DA1144801F032FC12484EF68D
:100CE0007D731F2214210090002000F0D5F80CE045
:100CF0001AA10D4801F024FC0B484EF67D731F220B
:100D000050210090002000F0C7F808BD0F0000201F
:100D10001B0000201A00002054696D653A253264DA
:100D20003A253264000000008400002018000020F2
:100D300019000020B0012142000021420E000020D5
:100D400074696D655F6765740000000020202020D5
:100D500020202020202020200000000054696D6504
:100D60003A2D2D3A2D2D00002DE9F04102460025A7
:100D70000026002000230024002791F803C00CF077
:100D80000F0591F803C00CF0100CBCF1000F03D05C
:100D900091F802C04CEA050591F800C0BCF1000FC3
:100DA00031D0146800202BE04FF0010C0CFA00F356
:100DB000B1F800C00CEA03069E4220D183004FF038
:100DC0000F0C0CFA03F7BC4305FA03FC4CEA0404CD
:100DD00091F803C0BCF1280F06D14FF0010C0CFABA
:100DE00000FCC2F814C00AE091F803C0BCF1480F3F
:100DF00005D14FF0010C0CFA00FCC2F810C0401CE9
:100E00000828D1D31460B1F800C0BCF1FF0F34DD65
:100E1000546800202EE000F1080C4FF0010808FA99
:100E20000CF3B1F800C00CEA03069E4221D1830006
:100E30004FF00F0C0CFA03F7BC4305FA03FC4CEA25
:100E4000040491F803C0BCF1280F05D100F1080C8F
:100E500008FA0CF8C2F8148091F803C0BCF1480FEE
:100E600007D100F1080C4FF0010808FA0CF8C2F89D
:100E70001080401C0828CED35460BDE8F0810246A3
:100E8000002093680B400BB1012000E00020704768
:100E900041617047016170472DE9F84F0746884668
:100EA00093469A46DDF828900097B3E099F8000041
:100EB00080283DDA99F800600D2E05D1009F08F1D9
:100EC00010001FFA80F830E0202E03DDA6F120008C
:100ED00086B200E00026002422E000251CE004EB9E
:100EE00006105049085C80212941084040B108EBB8
:100EF000040291B27A1990B25A4600F097F809E0CC
:100F0000D34507D008EB040291B27A1990B2524649
:100F100000F08CF8681CC5B2082DE0DB601CC4B280
:100F2000102CDADB07F1080087B209F1010971E042
:100F3000002668E006EB06103B4911F8100099F80E
:100F4000001088425DD106EB0610374901EB4000E6
:100F5000407899F80110884253D100244FE00025D1
:100F600020E006EB0610304901EB4000801C10F831
:100F7000141080202841014041B108EB040291B2D5
:100F80007A1990B25A4600F051F809E0D34507D0DB
:100F900008EB040291B27A1990B2524600F046F87A
:100FA000681CC5B2082DDCDB002524E006EB06102A
:100FB0001D4901EB4000801C012101EB4401405C14
:100FC00080212941084048B108EB040291B27A1906
:100FD000083290B25A4600F029F80AE0D34508D00A
:100FE00008EB040291B27A19083290B2524600F02E
:100FF0001DF8681CC5B2082DD8DB601CC4B2102CCB
:10100000ADDB701C86B2322E94DB09F1020907F1C8
:10101000100087B299F8000000287FF447AFBDE8C0
:10102000F88F0000D05600084264000870B50446EE
:101030000D461646681C83B2601C82B229462046C3
:1010400000F0F2FA304600F081F970BD00BFFEE713
:1010500008B50121102000F07BFC1020ADF8000045
:1010600004208DF8030069460148FFF77DFE08BDA6
:101070000010014008B501210C2000F069FC02209D
:10108000ADF8000048208DF8030069460C48FFF7D2
:101090006BFE4020ADF8000069460A48FFF764FE89
:1010A0002020ADF8000069460648FFF75DFE1020DD
:1010B000ADF8000069460248FFF756FE08BD000083
:1010C00000080140000C014070B504460D46294659
:1010D0002046FFF7D4FE40B900BF29462046FFF75F
:1010E000CEFE0028F9D0002070BD0120FCE70000F2
:1010F00008B502216448FFF7E7FFD0B900BF02211D
:101100006148FFF7E1FF0028F9D060480078401CF3
:101110005E490870084602785DA1604801F010FA47
:101120005E484EF67D731F22282100900020FFF7B5
:10113000B3FE40215A48FFF7C7FFD0B900BF402196
:101140005748FFF7C1FF0028F9D050480078401EEB
:101150004E490870084602784DA1504801F0F0F958
:101160004E484EF67D731F22282100900020FFF785
:1011700093FE20214A48FFF7A7FF002856D100BF61
:1011800020214748FFF7A0FF0028F9D04548007804
:10119000401C44490870087800EBD0714910A0EB5E
:1011A0004101012921D140A13C4801F0C9F93B4846
:1011B0004EF67D731F221E2100900020FFF76CFE6B
:1011C0004FF4FA7001F04CFE3BA1344801F0B8F93D
:1011D00032484EF67D731F221E2100900020FFF73B
:1011E0005BFE022003F0C6FD20E037A12B4801F092
:1011F000A7F92A484EF67D731F221E210090002079
:10120000FFF74AFE4FF4FA7001F02AFE2AA12348A4
:1012100001F096F921484EF67D731F221E210090A1
:101220000020FFF739FE012003F0A4FD102116482D
:10123000FFF74AFF38BB00BF10211348FFF744FFF8
:101240000028F9D024A1154801F07AF913484EF688
:101250007D731F221E2100900020FFF71DFE4FF41A
:10126000FA7001F0FDFD20A10C4801F069F90B486E
:101270004EF67D731F221E2100900020FFF70CFE0A
:10128000002003F077FD08BD0008014000000020A9
:10129000475F54454D3A2564430000008400002018
:1012A000000C01401C0000204169724C696E6B20EB
:1012B0004D6F6465000000002020202020202020A9
:1012C0002020202000000000736F6674646F74207B
:1012D0004D6F646500000000536F6674526573655E
:1012E00074204D6F646500002020202020202020E5
:1012F000202020202020000008B50121202000F01F
:1013000027FB3E20ADF8000003208DF802001020DE
:101310008DF8030069460B48FFF726FD01211020D8
:1013200000F016FB4FF48050ADF8000003208DF85C
:10133000020010208DF8030069460348FFF714FDF2
:1013400008BD0000001401400010014010B5044623
:101350000220084908600420091F0860201200F0DC
:101360000BFCE0B200F008FC02200249091F0860F3
:1013700010BD00001414014008B501210C2000F03C
:10138000E7FA4FF48050ADF8000010208DF803000C
:1013900003208DF8020069460448FFF7E5FC4FF48E
:1013A00080510248FFF776FD08BD0000000C0140A7
:1013B00070B506469F237F220021084600F034F9CD
:1013C0002C2000F06DF9002408E0002503E03046F1
:1013D000FFF7BCFF6D1CA02DF9D3641C802CF4D347
:1013E00070BD10B5FFF788FF00F00CF9112000F078
:1013F00057F9782001F034FDB12000F051F90120B7
:1014000000F03CF92C2000F039F92D2000F036F9DD
:10141000B22000F045F9012000F030F92C2000F056
:101420002DF92D2000F02AF9B32000F039F9012020
:1014300000F024F92C2000F021F92D2000F01EF9F5
:10144000012000F01BF92C2000F018F92D2000F0ED
:1014500015F9B42000F024F9072000F00FF9C0209E
:1014600000F01EF9A22000F009F9022000F006F9B0
:10147000842000F003F9C12000F012F9C52000F02B
:10148000FDF8C22000F00CF90A2000F0F7F8002067
:1014900000F0F4F8C32000F003F98A2000F0EEF821
:1014A0002A2000F0EBF8C42000F0FAF88A2000F0BF
:1014B000E5F8EE2000F0E2F8C52000F0F1F80E208B
:1014C00000F0DCF8362000F0EBF8C02000F0D6F891
:1014D000E02000F0E5F80F2000F0D0F81A2000F02E
:1014E000CDF80F2000F0CAF8182000F0C7F82F2020
:1014F00000F0C4F8282000F0C1F8202000F0BEF869
:10150000222000F0BBF81F2000F0B8F81B2000F0EC
:10151000B5F8232000F0B2F8372000F0AFF8002033
:1015200000F0ACF8072000F0A9F8022000F0A6F8BF
:10153000102000F0A3F8E12000F0B2F80F2000F036
:101540009DF81B2000F09AF80F2000F097F8172064
:1015500000F094F8332000F091F82C2000F08EF881
:10156000292000F08BF82E2000F088F8302000F0C1
:1015700085F8302000F082F8392000F07FF83F2015
:1015800000F07CF8002000F079F8072000F076F8F1
:10159000032000F073F8102000F070F82A2000F00B
:1015A0007FF8002000F06AF8002000F067F80020C3
:1015B00000F064F87F2000F061F82B2000F070F854
:1015C000002000F05BF8002000F058F8002000F048
:1015D00055F89F2000F052F8F02000F061F801204B
:1015E00000F04CF8F62000F05BF8002000F046F820
:1015F0003A2000F055F8052000F040F8292000F0CE
:101600004FF810BD10B5082006490860642001F0AD
:1016100027FC08200349091F0860322001F020FC44
:1016200010BD000014140140F0B505460C461646E6
:101630001F462A2000F034F8002000F01FF8E8B21E
:1016400000F01CF8002000F019F8B11CC8B200F03E
:1016500015F82B2000F024F8002000F00FF8E0B27D
:1016600000F00CF8002000F009F8791CC8B200F076
:1016700005F82C2000F014F8F0BD000010B5044669
:101680000220064908600420091F0860204600F077
:1016900073FA02200149091F086010BD14140140AB
:1016A00010B5044602200649086004200860204660
:1016B00000F062FA02200249091F086010BD000014
:1016C0001414014000BFFEE77047000070B5002110
:1016D00000230F22C47804B3154C246804F4E0649A
:1016E000C4F5E064210AC1F10403CA40447804FA55
:1016F00003F184781440214309010E4C0678A1556A
:10170000047804F01F050124AC4005786D11AD008C
:1017100005F1E025C5F8004109E0047804F01F0553
:101720000124AC40044D0678761145F8264070BD82
:101730000CED00E000E400E080E100E0024901433C
:10174000024A1160704700000000FA050CED00E04D
:101750002DE9F0414649888FFEF7FBFD804644485D
:10176000C1684046FEF726FE01D2BDE8F081404A3E
:1017700011685068FEF76EFD3D4988610846806932
:10178000C8610A46D1699068FEF76AFD3849C862A7
:101790000A46D169506AFEF70BFD354948620A4690
:1017A000116AD069FEF756FD0446314A1169D068C6
:1017B000FEF788FD05462E4881682846FEF750FD55
:1017C0002C4908602A48416A2A480068FEF748FD0B
:1017D0008046274881684046FEF742FD24498862DA
:1017E0000A46D1685069FEF76DFD064620498868B3
:1017F0003146FEF735FD074621463846FEF730FDF7
:101800001B4908630A46916AD06AFEF7D1FC8046FC
:101810001748016B4046FEF7CBFC17490860144996
:10182000C88FFEF796FD8046134801684046FEF7D4
:10183000C1FD06D20E49C88FFEF78BFD0C498863A7
:101840000EE000210C480068FEF7B4FD04D2084801
:10185000406B0749886303E00748006804498863D0
:101860000348C069024908620020888700BF7CE7FE
:10187000E8020020680000206400002000200849E1
:101880000860084888600848C86008480861084837
:101890004861C820C8874FF07E50486370470000F9
:1018A000E802002000000C420000F043809F554AEF
:1018B0000000614410B512480088401C104908809F
:1018C0001048C08F0988884202DC00200C4908803B
:1018D0000B480088FEF73DFD04460A48816B204610
:1018E000FEF768FD05D24FF480710748FFF7D2FA82
:1018F00004E04FF480710448FFF7CAFA10BD0000FD
:1019000060000020E802002000080140704700004D
:1019100029B1064AD2690243044BDA6104E0034A62
:10192000D2698243014BDA61704700000010024027
:1019300029B1064A12690243044B1A6104E0034AC2
:1019400012698243014B1A61704700000010024087
:1019500029B1064A92690243044B9A6104E0034AA2
:1019600092698243014B9A61704700000010024067
:1019700029B1064AD2680243044BDA6004E0034A04
:10198000D2688243014BDA607047000000100240C9
:1019900030B500210022002400232D4D6D6805F094
:1019A0000C0121B1042905D0082923D105E0294DD6
:1019B000056022E0274D05601FE0254D6D6805F4A8
:1019C0007012234D6D6805F48034022505EB9242B8
:1019D0001CB9214D554305600BE01D4D6D6805F4A4
:1019E00000351DB11C4D5543056002E0194D5543AE
:1019F000056002E0174D056000BF00BF144D6D6823
:101A000005F0F0010909154D6B5C0568DD40456086
:101A10000F4D6D6805F4E061090A104D6B5C456877
:101A2000DD4085600A4D6D6805F46051C90A0B4DB3
:101A30006B5C4568DD40C560054D6D6805F440414F
:101A4000890B074D6B5CC568B5FBF3F5056130BDCF
:101A50000010024000127A0000093D006C000020D6
:101A60007C00002008B510210F48FFF708FA68B97C
:101A70000EA1104800F064FD0E484EF67D731F2243
:101A8000782100900020FFF707FA0CE00AA109482E
:101A900000F056FD07484EF67D731F227821009016
:101AA0000020FFF7F9F908BD0010014049523A4CF7
:101AB0006F7720008400002049523A486967680027
:101AC0002DE9FC411F4802781FA1224800F038FD93
:101AD00020484EF67D731F22282100900020FFF73A
:101AE000DBF91D491D48FEF7F5FF1B480068FEF7AE
:101AF0004EFC04460D4619480068FEF748FC0646B1
:101B000032460B4616A11348CDE9004500F018FDFA
:101B100010484EF67D731F223C2100900020FFF7F5
:101B2000BBF908480078FEF714FC04460B4801682E
:101B30002046FEF749FC02D801200E490860BDE8A6
:101B4000FC81000000000020475F54454D3A2564A9
:101B50004300000084000020080000200400002052
:101B6000543A252E31664320483A252E31662525E4
:101B700000000000B00121420021082114E000F023
:101B800080021AB110220A4B1A6003E01022084B9F
:101B90001B1D1A602022064B1B1D1A601B1F1A609A
:101BA0004206100E4A1ED1B20029E8DC7047000040
:101BB00010140140704710B500F002F810BD00008D
:101BC0000CB50020019000903348006840F480304C
:101BD0003149086000BF3048006800F400300090D0
:101BE0000198401C0190009818B90198B0F5A06FB9
:101BF000F1D12948006800F4003010B101200090B4
:101C000001E0002000900098012843D1234800689B
:101C100040F01000214908600846006820F00300E9
:101C200008600846006840F0020008601A484068F2
:101C3000194948600846406848600846406840F4D2
:101C4000806048600846406820F47C104860084680
:101C5000406840F4E81048600846006840F0807032
:101C6000086000BF0C48006800F000700028F9D040
:101C70000948406820F0030007494860084640686A
:101C800040F00200486000BF0348406800F00C00CC
:101C90000828F9D10CBD00000010024000200240CD
:101CA00008B51E48007801281AD11DA11E4800F071
:101CB00047FC1D484EF67D731F2200210090084608
:101CC000FFF7EAF819A1184800F03AFC16484EF65A
:101CD0007D731F22002100904620FFF7DDF81BE0F6
:101CE00014A1114800F02CFC0F484EF67D731F2202
:101CF000002100900846FFF7CFF81048027810A1A5
:101D0000094800F01DFC08484EF67D731F22002193
:101D100000904620FFF7C0F808BD00000E0000202C
:101D20004155544F00000000840000202020202056
:101D3000202000004D414E55000000000D00002005
:101D400066616E3A25326400042808D14FF0E02124
:101D5000096941F004014FF0E022116107E04FF002
:101D6000E021096921F004014FF0E0221161704780
:101D70007047000010B51348006840F00100114999
:101D8000086008464068104908400E494860084607
:101D900000680E4908400B4908600846006820F4B6
:101DA000802008600846406820F4FE0048604FF438
:101DB0001F008860FFF7FFFE4FF0006004490860D5
:101DC00010BD0000001002400000FFF8FFFFF6FE0B
:101DD00008ED00E010B50221044800F04DF918B1FB
:101DE0000221024800F02AF910BD0000002C014039
:101DF00000B589B001210420FFF7AAFD4FF48070DF
:101E0000ADF8200018208DF8230003208DF8220063
:101E100008A91F48FEF7A8FF0121C802FFF798FD97
:101E200040F2E630ADF818004620ADF8140000206E
:101E3000ADF81A00ADF816008DF81C0005A915487C
:101E400000F096F901A800F086F96020ADF80400D2
:101E50000020ADF80C000120ADF806004FF4FA7038
:101E6000ADF80A0001A90B4800F020F9012109484A
:101E700000F0E7F80821074800F064F9012105485F
:101E800000F0D0F80121034800F0E7F809B000BDE8
:101E900000080140002C014010B5044621460248CC
:101EA00000F063F910BD0000002C014010B50121C5
:101EB000044800F0E1F818B10121024800F0BEF832
:101EC00010BD0000002C014010B50121880700F072
:101ED000D3F8002847D024480078401C22490870D5
:101EE00022480068401C2149086021480068401CC5
:101EF0001F4908600121880700F0A0F802F0A4FB48
:101F000019480078052807D10020174908700120DA
:101F1000184908801849088015480068B0F5FA7F0C
:101F200005D10020124908600120144908700F48AB
:101F30000068B0F57A7F16D100200C49086010487F
:101F40000078401C0E490870084600780A2804D121
:101F50000020087001200B4908700B48006880F4CD
:101F600080500949086010BD380000203C00002066
:101F70004000002028000020340000204400002001
:101F800045000020460000200C0C014010B500F078
:101F900061F900F03FF910BD10B50121074800F0CC
:101FA0006BF850B10121054800F048F80448808FD3
:101FB000401C03498887FFF77DFC10BD00040040EA
:101FC000E80200207FB505460C4601210220FFF7FC
:101FD0009FFCADF80850ADF804400020ADF80A00B1
:101FE000ADF8060001A90E4800F0C2F80122114622
:101FF0000B4800F052F81D208DF8000000208DF8ED
:10200000010002208DF8020001208DF803006846CF
:10201000FFF75CFB0121024800F013F87FBD0000D0
:102020000004004021B1028842F08002028004E0F6
:1020300002884FF67F731A4002807047CA430282BB
:10204000704721B1028842F00102028004E0028858
:102050004FF6FE731A400280704731B1B0F8442049
:1020600042F40042A0F8442005E0B0F84420C2F356
:102070000E02A0F84420704730B50246002000232D
:102080000024158A05EA0103958905EA010413B1C4
:102090000CB1012000E0002030BD1AB183890B4350
:1020A000838102E083898B438381704770B500246C
:1020B00000220023058C4FF6FE7635400584028C05
:1020C0008388048B4FF68F752C40B51E2C400D88ED
:1020D0002C43751E2A400D892A434D882A43144DEE
:1020E000A8420BD0134DA84208D0134DA84205D0EA
:1020F000124DA84202D0124DA84213D14FF6F775E7
:102100002A404D892A434FF6FB752A408D882A4381
:102110004FF6FF652B404FF6FF552B408D892B4323
:10212000CD892B4383800483CD888586028470BD4E
:10213000002C0140003401400040014000440140B7
:10214000004801400A460021018B4FF6F773194001
:102150001143018370470021018041808180C1804B
:10216000018141818181C181704781867047000072
:10217000002202881D4B98420ED01D4B98420BD076
:10218000B0F1804F08D01B4B984205D01A4B9842B3
:1021900002D01A4B984204D14FF68F731A404B88E5
:1021A0001A43174B984207D0164B984204D04FF66B
:1021B000FF431A40CB881A4302808B8883850B88A3
:1021C00003850A4B98420BD0094B984208D00E4B1E
:1021D000984205D00D4B984202D00D4B984201D148
:1021E0000B7A03860123838270470000002C014094
:1021F000003401400004004000080040000C004092
:102200000010004000140040004001400044014024
:10221000004801400EB501210846FFF779FB09206F
:10222000ADF8040041F61F40ADF800000020ADF805
:102230000600ADF8020069464FF08040FFF798FFB6
:10224000012211469007FFF728FF01218807FFF7B9
:10225000F8FE0EBD08B51C208DF8000000208DF89A
:10226000010003208DF8020001208DF8030068466C
:10227000FFF72CFA08BD000008B540F225510748C9
:1022800000F075F840B1054800F02CF9C0B200909C
:102290000121684602F094F808BD000000380140B2
:1022A00021B1828942F40052828104E082894DF694
:1022B000FF731A408281704710B50446204884425B
:1022C00009D101218803FFF753FB00214FF480401F
:1022D000FFF74EFB32E01B48844209D1012148043C
:1022E000FFF726FB00214FF40030FFF721FB25E02C
:1022F0001548844209D101218804FFF719FB002108
:102300004FF48020FFF714FB18E01048844209D1F5
:102310000121C804FFF70CFB00214FF40020FFF758
:1023200007FB0BE00A48844208D101210805FFF7AA
:10233000FFFA00214FF48010FFF7FAFA10BD0000F9
:10234000003801400044004000480040004C00407C
:102350000050004002460020B1F5007F00D100BFD0
:1023600013880B400BB1012000E00020704770B5CE
:102370000246002400230025002040F66A16B142E0
:1023800000D100BFC1F3421501F01F03012606FA78
:1023900003F3012D02D19689334006E0022D02D1CC
:1023A000168A334001E0968A33400C12012606FA61
:1023B00004F41688344013B10CB1012000E0002071
:1023C00070BDF0B50346002400260025002040F62D
:1023D0006A17B94200D100BF1846C1F3421401F098
:1023E0001F06012707FA06F5012C01D10C3004E085
:1023F000022C01D1103000E014301AB107682F43CD
:10240000076002E00768AF430760F0BD2DE9F047C1
:1024100086B005460E460024A24600BFA14600270E
:10242000B08900B100BF2F462C8A4CF6FF700440E3
:10243000F08804432C82AC894EF6F3100440B08837
:1024400031890843718908430443AC81AC8A4FF653
:10245000FF400440B0890443AC8201A8FFF798FA1A
:102460001F48874202D1DDF810A001E0DDF80CA082
:10247000A88900F4004040B10AEBCA0000EB0A1042
:1024800031684900B0FBF1F807E00AEBCA0000EB45
:102490000A1031688900B0FBF1F86420B8FBF0F055
:1024A00004012009642101FB1089A88900F400407F
:1024B00040B1322000EBC900B0FBF1F000F00700A2
:1024C000044308E0322000EB09106421B0FBF1F076
:1024D00000F00F0004432C8106B0BDE8F087000037
:1024E0000038014001468888C0F308007047C1F3F6
:1024F00008028280704700BFFEE7000008B5012196
:102500008020FFF725FA0F20ADF8000048208DF855
:10251000030069460148FEF727FC08BD000801409A
:102520000FB4054B10B503A9044A029800F0DEF879
:1025300010BC5DF814FB0000652F0008800000202F
:102540000FB4084B10B504A902AA039800F0CEF806
:10255000044602A9002000F060FC204610BC5DF893
:1025600014FB00001B2E000802E008C8121F08C15F
:10257000002AFAD170477047002001E001C1121F04
:10258000002AFBD1704700002DE9FF5FDDE9022042
:10259000010DDDF838B0024318D044F61050A1F216
:1025A000FF3141430D140F98012820D0A5EB0B00FB
:1025B000401C5FEA000A4FF00004474EDFF81C9110
:1025C000A046504616D5CAF1000728E00F9801240E
:1025D00043A2012808D0002100980F9BC0E90021E8
:1025E000C0E90243BDE8FF9F6FEA0B01F4E7CBF1BE
:1025F0000000DEE7074612E0F80707D02246334620
:1026000040464946FEF70FF8804689462246334643
:1026100010461946FEF707F804460E467F10002FB5
:10262000EAD1DDE90201BAF1000F42464B4602DA77
:10263000FDF7F9FF01E0FEF768F804460E460022B8
:10264000284BFEF7E9F803D84FF0FF30014607E0CA
:102650000022254B20463146FDF73EFFFEF7C4F829
:10266000102409E0002C0ADB0A220023FDF7CCFE2F
:10267000019B30321A55641E50EA0102F2D1641CEB
:10268000019AC4F1110314440F9A012A03D00122C4
:1026900008430DD10AE0084304D000204FF0110B8D
:1026A0000F9080E7A3EB0B056D1E0DE05B4504DD8D
:1026B0004FF0000205F1010504E003DA4FF00002DB
:1026C000A5F10105002AECD000980F99C0E902316C
:1026D000C0E9004586E70000000024400000F03F0C
:1026E000300000000000F0430000E03F2DE9FF4F04
:1026F00095B09B468946064600250FE2252877D1EE
:1027000000242746F84A0121059400E0044316F806
:10271000013F203B01FA03F01042F7D130782A281C
:1027200011D06FF02F033078A0F13002092A16D8AB
:10273000059A44F0020402EB820203EB42021044C9
:10274000761C0590EFE759F8042B0592002A03DA6E
:10275000504244F40054059044F00204761C307852
:102760002E2816D116F8010F44F004042A280DD0A3
:102770006FF02F023078A0F13003092B09D807EB56
:10278000870302EB4303C718761CF3E759F8047B71
:10279000761C30786C280FD006DC4C2817D06828BF
:1027A0000DD06A2814D104E0742810D07A280FD1F3
:1027B0000DE044F400140AE044F4801401E044F411
:1027C00040147278824202D104F58014761C761C83
:1027D000307866280BD013DC582877D009DC002825
:1027E00075D04528F6D04628F4D047281AD19DE167
:1027F00018E0632835D0642879D0652812D195E196
:10280000702873D008DC6728F1D069286FD06E2853
:102810000DD06F2806D1B5E073282CD0752875D05F
:10282000782874D05A46179990476D1C75E1C4F307
:102830000250022809D003280DD0D9F8001004282E
:102840000DD00D6009F1040967E1D9F80010EA170D
:10285000C1E90052F6E7D9F800100D80F2E70D70DB
:10286000F0E719F8041B8DF8001000208DF8010026
:10287000EA46012003E059F804AB4FF0FF3061074E
:102880004FF0000102D40DE008F101018846B94281
:102890000FDA8045F8DB1AF808100029F4D108E0B7
:1028A00008F1010188468142FADB1AF80810002974
:1028B000F6D105985B46A0EB080721463846179AE3
:1028C00000F094FA284400EB080507E04DE029E108
:1028D0000DE01AF8010B5A4617999047B8F1010814
:1028E000F7D25B4621463846179A13E142E00A22A6
:1028F0000092C4F302524FF0000A022A08D059F89D
:1029000004CB032A4FEAEC710AD00DE029E02AE05B
:1029100009F1070121F00702F2E802C1914609E03E
:102920000FFA8CFC4FEAEC71042A03D14FFA8CFCAD
:102930004FEAEC71002907DA0A460021DCF1000CAD
:1029400061EB02012D2202E0220504D52B228DF835
:102950000420012203E0E20701D02022F7E790469D
:1029600059E00A2102E010220DE010214FF0000A88
:1029700000910BE010224FF0000A44F004040827F5
:10298000009203E008224FF0000A0092C4F30252C2
:10299000022A05D059F804CB0021032A08D009E007
:1029A00009F1070121F00702F2E802C1914605E0B2
:1029B0001FFA8CFC042A01D10CF0FF0C4FF0000828
:1029C000220728D5702806D0009B83F0100353EA15
:1029D0000A0305D00EE040228DF80420012208E011
:1029E0005CEA010206D030228DF804208DF8050043
:1029F00002229046009B83F0080353EA0A030AD19F
:102A00005CEA010201D1620705D530228DF804206D
:102A10004FF001087F1E582804D034A003900EA860
:102A200002900DE036A0F9E753466046009AFDF7A4
:102A3000EBFC84460398825C0298401E0290027070
:102A40005CEA0100F0D1029806A9081A00F1200AF8
:102A5000600702D524F4803400E00127574502DDE9
:102A6000A7EB0A0000E0002000EB0A0100900598A7
:102A70004144401A0590E00306D45B462146179A6C
:102A8000059800F0B3F90544002706E001A85A466E
:102A9000C05D179990476D1C7F1C4745F6DBE0032E
:102AA0000CD55B462146179A059800F09FF905441E
:102AB00004E030205A46179990476D1C0099481E33
:102AC00000900029F5DC08E0029802995A46007847
:102AD000491C0291179990476D1CBAF10001AAF1A7
:102AE000010AF1DC65E100000928010030313233D0
:102AF000343536373839616263646566000000003A
:102B00003031323334353637383941424344454623
:102B10000000000000F058F90544761C30780028C9
:102B20007FF4ECAD19B02846BDE8F08F620700D401
:102B3000062709F1070222F0070CFCE80223E14610
:102B400003F000485FEA080C02D00FF2702C0DE091
:102B50005FEA045C02D50FF2682C07E05FEAC47CF0
:102B600002D00FF2602C01E0AFF2700C4FF0FF3892
:102B700023F00043CDF850C065280CD006DC452872
:102B800009D046281DD047283DD13DE0662818D001
:102B900067287ED138E00021112F01DB112000E0F1
:102BA000781CCDE9000106A90EA8FFF7EDFCDDE9D0
:102BB0000F010E9A03910021009207F1010A04917E
:102BC0004DE04FF000400097CDE9011006A90EA896
:102BD000FFF7DAFCDDE90F0203920E9B1199002248
:102BE000DDF80CA00093049211B9791C00EB010AE6
:102BF000B7EB0A0004D4C0F1FF3007F1010A0490DA
:102C0000AAEB0700019044E0012F00DA0127002120
:102C1000112F01DD112000E03846CDE9000106A9A1
:102C20000EA8FFF7B1FCDDE90F010E9A0391002118
:102C300004910092BA4621070CD40399514500DA59
:102C40008A46BAF1010F05DD009AAAF10101515C33
:102C5000302908D0B84202DA10F1040F06DA012157
:102C6000CDE9011015E0AAF10101E9E7002805DC32
:102C7000049901440491AAEB000102E0411C514572
:102C800000DD8A460499401A401C01904FF0004034
:102C90000290200704D40198504501DBCDF8048050
:102CA00000208DF84F0002980DF14F07B0F1004F52
:102CB00025D02B200E9002984FF0020800280CDA45
:102CC000404202902D200E9007E00A210298FDF765
:102CD00085FB3031029007F8011DB8F10001A8F121
:102CE0000108F2DC02980028EFD1791E0E980870D6
:102CF000307800F0200040F0450007F8020D12A8DF
:102D0000C01B00F107081498007800B1012000EB07
:102D10000A01019801EBE07105984144401A401EF8
:102D20000590E00306D45B462146179A059800F00B
:102D30005DF805441498007818B15A4617999047E1
:102D40006D1CE00324D55B462146179A059800F0D8
:102D50004DF805441CE00498002807DBDDE9030179
:102D6000884203DD0098405C179901E017993020F4
:102D70005A469047049805F10105401C04900198BB
:102D8000401E019004D12E205A46179990476D1C81
:102D9000BAF10001AAF1010ADDDC05E017F8010B28
:102DA0005A46179990476D1CB8F10001A8F1010827
:102DB000F4DC5B462146179A0598ABE62D0000002F
:102DC0002B000000200000002DE9F0410446002502
:102DD0001E461746880404D405E039462020B04733
:102DE0006D1C641EF9D52846BDE8F0812DE9F0413F
:102DF000044600251E469046C80301D5302700E052
:102E00002027880404D505E041463846B0476D1CAC
:102E1000641EF9D52846BDE8F0810A68531C0B6092
:102E20001070704710B504466FF00400FEF78CFF79
:102E3000E11704EB5171C1F3C701074A1170104645
:102E4000007800EB4001C1EBC0104FF6FF7101EAC2
:102E5000C0000249088010BD1E0000202000002094
:102E600070B504464FF4077094FBF0F0C6B24FF40F
:102E7000077094FBF0F100FB114085B205E04FF4C0
:102E8000077000F02FF8701EC6B2002EF7D115B1F2
:102E9000284600F027F870BD0146114A12784A43CF
:102EA0004FF0E0235A6100229A611A46126942F0FB
:102EB00001021A6100BF4FF0E022106900F0010228
:102EC0001AB100F48032002AF5D04FF0E0221269E6
:102ED00022F001024FF0E0231A6100229A6170474C
:102EE0001E0000200146114A12884A434FF0E02399
:102EF0005A6100229A611A46126942F001021A616F
:102F000000BF4FF0E022106900F001021AB100F496
:102F10008032002AF5D04FF0E022126922F001023F
:102F20004FF0E0231A6100229A61704720000020D0
:102F300001B581B000200090694601AA5078087060
:102F400010784870BDF800000CBD0146080601F479
:102F50007F4240EA022001F47F0240EA122040EA68
:102F60001160704770B504460D46E1B20548FFF7A1
:102F7000BEFA00BF80210348FFF7ECF90028F9D022
:102F8000204670BD00440040024612B102F0070026
:102F900028B9082901D8002070470120FCE702F079
:102FA0000700C0F10800884201D30020F4E70120A7
:102FB000F2E730B502460B460021002400250AB98D
:102FC000481E30BD002108E0545C581A401E155CB4
:102FD0005554581A401E1454491CB1EB530FF3D3E7
:102FE0000020EEE72DE9F04104460D4600260027BB
:102FF00004B135B935A0FFF793FA4FF0FF30BDE8C3
:10300000F08100F035FA074628782178884203D00D
:1030100038A0FFF785FA012668786178884203D0E6
:103020003AA0FFF77DFA0126D5F80200D4F8021085
:10303000884203D03CA0FFF773FA0126D5F80600BA
:10304000D4F80610884203D03EA0FFF769FA0126A3
:10305000D5F80A00D4F80A10884203D03FA0FFF741
:103060005FFA0126D5F80E00D4F80E10884203D07E
:103070003FA0FFF755FA0126D5F81200D4F8121038
:1030800088420AD03F480068381A41F2707188427D
:1030900003D33DA0FFF744FA0126D5F81600D4F873
:1030A000161088420AD037480068381A41F2707109
:1030B000884203D339A0FFF733FA0126012E03D14A
:1030C00000F0D6F92F490860304698E767697A43DF
:1030D0006865636B5265706F7274204572726F72AF
:1030E000202C20496C6C6567616C20506172616DA9
:1030F0000A00000076616C75655377697463682017
:103100004368616E6765640A0000000076616C7553
:103110006553776974636874696D65204368616E8F
:103120006765640A0000000076616C7565475F742E
:10313000656D705F6E6574204368616E6765640AD3
:103140000000000076616C756566616E7370656580
:1031500064204368616E6765640A000076616C757F
:1031600065486F7572204368616E6765640A000088
:1031700076616C75654D696E74204368616E676534
:10318000640A00005000002076616C756574656DFE
:1031900070204368616E6765640A000076616C7533
:1031A0006568756D69204368616E6765640A000033
:1031B000F8B505460C4616460DB104B12EB940A02F
:1031C000FFF7AEF94FF0FF30F8BD287800F00100AE
:1031D00098B111212278601C81542078401C207005
:1031E00001206B1C024600210090084601F0CAF93C
:1031F00008B1012000E0002030702878C0F34000C2
:1032000098B112212278601C81542078401C2070D3
:1032100001206B1C024601460090002001F0B2F92B
:1032200008B1012000E0002070702878C0F3800011
:1032300068B113212278601C81542078401C2070D2
:10324000AA780021012001F007FAC6F802002878C8
:10325000C0F3C00068B114212278601C815420782A
:10326000401C2070EA780021012001F0F5F9C6F831
:1032700006002878C0F3001068B115212278601C80
:1032800081542078401C20702A790021012001F00F
:10329000E3F9C6F80A002878C0F3401068B1162197
:1032A0002278601C81542078401C20706A790021AB
:1032B000012001F0D1F9C6F80E00002084E70000DB
:1032C00067697A44617461506F696E7432457665DE
:1032D0006E74204572726F72202C20496C6C656789
:1032E000616C20506172616D0A00000038B50546BE
:1032F0000C4605B12CB923A0FFF712F94FF0FF30AF
:1033000038BD00202070AD1C15F8020C23460122A8
:1033100000210090084601F0F5F815F8010C23464D
:10332000012211460090002001F0ECF80121204616
:10333000FFF73FFE2A680021012001F093F9607039
:103340006A680021012001F08DF9A070AA680021AF
:10335000012001F087F9E070EA680021012001F006
:1033600081F920712A690021012001F07BF9607147
:103370006A69AD1E0021012001F074F9A0710020DE
:10338000BEE7000067697A44617461506F696E74CA
:1033900073325265706F7274446174612045727249
:1033A0006F72202C20496C6C6567616C20506172D3
:1033B000616D0A0070B5054600F05AF804461D49D3
:1033C0002846FFF70FFE012813D11BA0FFF7A8F82E
:1033D000184921392846FFF789FF28B907221549DE
:1033E0002139042001F026F81A2229461148FCF759
:1033F000BBFE1748B4FBF0F100FB1140C8B91548FB
:103400000068A04215D014A0FFF78AF809492139B5
:103410002846FFF76BFF28B9072206492139042007
:1034200001F008F81A2229460248FCF79DFE0948D7
:10343000046070BDF70100206368616E6765642CED
:10344000207265706F727420646174610A000000FC
:10345000C027090054000020496E666F3A203630BC
:103460003053207265706F727420646174610A0059
:1034700001480068704700004C00002010B5174854
:1034800090F88500012827D1144890F8840002287C
:103490001DDAFFF7EDFF1149D1F8C210401AC82814
:1034A0001AD9FFF7E5FF04460C4890F88430D0F8AD
:1034B000C22021460AA0FFF733F800F0D9FE0748E2
:1034C00090F88400401C054981F8840004E0422102
:1034D00002488430FCF761FE10BD0000B0000020FF
:1034E0005761726E696E673A67697A50726F746F6E
:1034F000636F6C526573656E64446174612025640A
:103500002025642025640A003EB50446002524B920
:1035100013A0FFF705F8681E3EBD206800906068A4
:1035200001909DF80400401CC0B28DF804000520F5
:10353000FFF7FEFCADF802000921684600F0D6FE58
:103540008DF808000921684601F0D0FF0546002DDE
:1035500003DA29460DA0FEF7E3FF2846DCE700006A
:103560004552523A2067697A50726F746F636F6C7C
:10357000436F6D6D6F6E41636B2064617461206990
:103580007320656D707479200A0000004552523A2C
:103590002075617274207772697465206572726F2C
:1035A00072202564200A0000FEB504460E46002560
:1035B00024B914A0FEF7B4FF681EFEBD684600F0F3
:1035C00001FA12208DF8040060798DF805000620BC
:1035D000FFF7AEFCADF802008DF808600A216846DE
:1035E00000F084FE8DF809000A21684601F07EFF94
:1035F0000546002D03DA29460DA0FEF791FF284667
:10360000DBE7000067697A50726F746F636F6C4517
:1036100072726F72436D64204572726F72202C203B
:10362000496C6C6567616C20506172616D0A0000C5
:103630004552523A20756172742077726974652020
:103640006572726F72202564200A000030B59DB04B
:10365000044600252CB92BA0FEF762FF681E1DB0A2
:1036600030BD684600F0AEF902208DF804006079A4
:103670008DF805002FA103C9CDE9020130A103C9CE
:10368000CDE9040131A103C9CDE9080132A103C983
:10369000CDE90601202233A10AA8FCF765FD20220E
:1036A00039A10DF15200FCF75FFD0020CDF84A0072
:1036B000CDF84E009DF851008DF851009DF8510055
:1036C00040F002018DF851100020FFF731FCADF8F9
:1036D00048006F20FFF72CFCADF80200732168460C
:1036E00000F004FE8DF872007321684601F0FEFEC2
:1036F0000546002D03DA29462CA0FEF711FF2846C7
:10370000ADE7000067697A50726F746F636F6C4742
:103710006574446576696365496E666F20457272AB
:103720006F72202C20496C6C6567616C205061724F
:10373000616D0A003030303030303034000000002D
:103740003030303030303032000000003033303331
:103750003030303000000000303330313031303024
:1037600000000000306138646164383938326364C5
:1037700034653563613363653638353635613538E0
:10378000323537310000000038623062313863333F
:1037900066383334343461643933356236646531C4
:1037A0003966663231613136000000004552523AC6
:1037B0002075617274207772697465206572726F0A
:1037C00072202564200A00002DE9FE4F80460E4637
:1037D00017464FF0000B00200290814682460025DC
:1037E00034460090B8F1000F01D006B137B955A0AA
:1037F000FEF796FE4FF0FF30BDE8FE8F404601F029
:10380000F3FC1FFA80FABAF1000F02D14FF0FF303B
:10381000F2E74FF0000969E0012201A9404601F0FA
:1038200020FD8346BBF1000F5ED052480078FF2890
:103830001FD19DF80400FF281BD14F48007848B9DC
:10384000FF202070607002204C49088001204A4906
:10385000087040E04948008804283CDD474800885B
:10386000A84238D0FF2020706070022043490880B1
:1038700031E040480078FF2803D19DF80400552826
:1038800029D03D480078012825D19DF804003B4906
:103890000988605439480088401C38490880084627
:1038A0000088042817DD0094009C6088FFF740FB27
:1038B000001D85B23A2D01D2042D07DC00202E49CF
:1038C00008702E4908802EA0FEF72AFE2B4800889B
:1038D000A84200D10CE09DF8040026490870384841
:1038E0000078401C3649087009F10109D14593DB85
:1038F00000BF22480088042822DD20480088A84212
:103900001ED11E480188204600F0F0FC02901B48A2
:103910000088401E215C029881420AD13D8000202F
:103920001549087015490880254908701149087023
:1039300062E700201049087010490880801E5BE78C
:10394000012059E767697A50726F746F636F6C4733
:1039500065744F6E655061636B6574204572726F5C
:1039600072202C20496C6C6567616C20506172611B
:103970006D0A00005C000020580000205A00002062
:103980004552523A7468652064617461206C656EBA
:1039900067746820697320746F6F206C6F6E672086
:1039A0006F7220746F6F20736D616C6C2C2077695F
:1039B0006C6C206162616E646F6E200A0000000012
:1039C0005D00002010B504462CB907A0FEF7A8FD45
:1039D0004FF0FF3010BD002020606060FF2020709D
:1039E00060700020F6E700004552523A2067697A7D
:1039F00050726F746F636F6C48656164496E69746F
:103A0000206865616420697320656D707479200A8F
:103A1000000000002DE9F04F9FB006468B46174688
:103A2000994600201E9082468046002501ACBBF1DD
:103A3000000F06D131A0FEF773FD681E1FB0BDE870
:103A4000F08FB9F1010F06D196F8088008F1060051
:103A5000384485B201E0781D85B22B46424639468E
:103A60002CA0FEF75DFDFF2004F8010B04F8010B0C
:103A7000281204F8010B04F8015B3079401C04F8AB
:103A8000010B707904F8010B002004F8010B04F815
:103A9000019B4FF0080AB9F1010F0DD104F8018B19
:103AA0000AF1010A01A901EB0A00424606F10901E7
:103AB000FCF75AFBC244444437B101A901EB0A00A8
:103AC0003A465946FCF750FB291D01A800F00EFCB0
:103AD0000146E81C01AA1154291D01A801F006FDA8
:103AE0001E901E98002806DA14A01E99FEF718FDF5
:103AF0006FF00100A2E70020A0E700005B455252F2
:103B00005D202064617461204973204E756C6C20C7
:103B10000A0000006C656E203D202564202C207377
:103B20004469644C656E203D202564202C646174DA
:103B3000615F6C656E203D2025640A0075617274BA
:103B4000207772697465206572726F722025642017
:103B50000A0000002DE9F04780460C4617461D4636
:103B6000089E94F800900CB105B136B931A0FEF76B
:103B7000D7FC4FF0FF30BDE8F087B8F1000F56D109
:103B800018213848FCF709FBB9F1010F06D0B9F14B
:103B9000020F11D0B9F1050F47D127E0314A673242
:103BA0003049601CFFF704FB01202E49C63908701C
:103BB00000250020306039E02A49603101F1210000
:103BC000FFF794FB70B9274860300168C5F8011011
:103BD0008188A5F805108079E871032028700820F5
:103BE000306002E04FF0FF30C5E71FE07A1E611C35
:103BF0001C488B38FCF7B8FA781E1A49C639886712
:103C000010211848C63890F8C620C7308154C738EC
:103C100090F8C600401C1349C63981F8C60003203D
:103C2000087000250020306000E000BF00BF0020C9
:103C3000A1E7000067697A50726F746F636F6C4917
:103C4000737375656450726F636573732045727228
:103C50006F72202C20496C6C6567616C205061721A
:103C6000616D0A007601002070B5044625462CB926
:103C70000EA0FEF755FC4FF0FF3070BD412205F15C
:103C800008010E48FCF770FA0F210D4890F80E213C
:103C900000F20F1081540A4890F80E01401C0849A8
:103CA00081F80E01052008700020E6E74E545020F0
:103CB000697320656D707479200A0000200200206D
:103CC000B000002010B504462CB9CAA0FEF728FCAD
:103CD0004FF0FF3010BD2089FFF72AF92081D1482D
:103CE0000078C0F38000217AC1F38001884256D069
:103CF000207AC0F38000002829D0207A00F001004B
:103D000078B10021C84890F8DE20DF308154DF38D8
:103D100090F8DE00401CC44981F8DE00C3A0FEF725
:103D2000FFFB207AC0F34000002838D00121BE48B4
:103D300090F8DE20DF308154DF3890F8DE00401C40
:103D4000B94981F8DE00C1A0FEF7EAFB27E0207A3E
:103D500000F0010078B10021B34890F8DE20DF3098
:103D60008154DF3890F8DE00401CAF4981F8DE0056
:103D7000AEA0FEF7D5FB207AC0F3400078B1022157
:103D8000A94890F8DE20DF308154DF3890F8DE005B
:103D9000401CA54981F8DE00B3A0FEF7C1FBA14895
:103DA0000078C0F3C000217AC1F3C00188422CD052
:103DB000207AC1089B48007861F3C30099490870D4
:103DC000207AC0F3C00080B10321974890F8DE202C
:103DD000DF308154DF3890F8DE00401C924981F8D2
:103DE000DE00A8A0FEF79CFB0FE004218E4890F8AF
:103DF000DE20DF308154DF3890F8DE00401C8A4935
:103E000081F8DE00A7A0FEF78BFB86480078C0F3A0
:103E10000010217AC1F3001188422CD0207A0109C8
:103E20008048007861F304107E490870207AC0F35E
:103E3000001080B105217C4890F8DE20DF308154ED
:103E4000DF3890F8DE00401C774981F8DE009DA045
:103E5000FEF766FB0FE00621734890F8DE20DF30A6
:103E60008154DF3890F8DE00401C6F4981F8DE0095
:103E70009CA0FEF755FB6B480078C0F34010217AF8
:103E8000C1F3401188422CD0207A4109654800785E
:103E900061F3451063490870207AC0F3401080B187
:103EA0000721614890F8DE20DF308154DF3890F838
:103EB000DE00401C5C4981F8DE0093A0FEF730FB79
:103EC0000FE00821584890F8DE20DF308154DF38B9
:103ED00090F8DE00401C544981F8DE0091A0FEF706
:103EE0001FFB50484078C0F3C001607AC0F3C000A7
:103EF00081422CD0607AC1084A48407861F3C300FF
:103F000048494870607AC0F3C00080B10B21464830
:103F100090F8DE20DF308154DF3890F8DE00401C5E
:103F2000414981F8DE0087A0FEF7FAFA0FE00C2184
:103F30003D4890F8DE20DF308154DF3890F8DE0015
:103F4000401C394981F8DE0085A0FEF7E9FA3548C2
:103F50004078C0F30011607AC0F3001081422CD089
:103F6000607A01092F48407861F304102D494870A8
:103F7000607AC0F3001080B109212B4890F8DE2050
:103F8000DF308154DF3890F8DE00401C264981F88C
:103F9000DE007BA0FEF7C4FA0FE00A21224890F869
:103FA000DE20DF308154DF3890F8DE00401C1E49EF
:103FB00081F8DE0079A0FEF7B3FA0D211A4890F8D7
:103FC000DE20DF308154DF3890F8DE00401C1649D7
:103FD00081F8DE00607A00F0070081F86101084690
:103FE00090F8611174A0FEF79BFA02200E49087048
:103FF00000206FE667697A50726F746F636F6C4D63
:104000006F64756C65537461747573204572726F5B
:1040100072202C20496C6C6567616C205061726164
:104020006D0A00005E000020B00000204F6E426F5D
:10403000617264696E673A20536F66744150206FF5
:104040007220576562206D6F64650A004F6E426F83
:10405000617264696E673A204169724C696E6B20C7
:104060006D6F64650A0000004F6E426F6172646993
:104070006E673A2053746174696F6E206D6F64656A
:104080000A00000057694669207374617475733AB9
:1040900020696E2062696E64696E67206D6F646569
:1040A0000A00000057694669207374617475733A99
:1040B000206F75742062696E64696E67206D6F642D
:1040C000650A000057694669207374617475733A14
:1040D00020636F6E6E656374656420726F757465BE
:1040E000720A000057694669207374617475733AE7
:1040F00020646973636F6E6E656374656420726FAC
:10410000757465720A00000057694669207374610E
:104110007475733A20636F6E6E6563746564206DA9
:10412000326D0A0057694669207374617475733A79
:1041300020646973636F6E6E6563746564206D32AD
:104140006D0A000057694669207374617475733A8B
:104150002061707020636F6E6E6563740A000000EA
:1041600057694669207374617475733A206E6F20C5
:1041700061707020636F6E6E6563740A00000000EA
:1041800057694669207374617475733A20696E20AB
:1041900074657374206D6F64650A00005769466921
:1041A000207374617475733A206F7574207465732D
:1041B00074206D6F64650A0052535349206973205F
:1041C0002564200A0000000070B5044625462CB97D
:1041D00019A0FEF7A5F94FF0FF3070BD1B48A96884
:1041E0000160A9898180A97B8171A0F5B270D5F8A1
:1041F0000F10C0F86C110146B1F86401FEF798FE8B
:104200001349A1F86401D1F86C01FEF79EFE104934
:10421000C1F86C010E210E4890F8F620F730815459
:10422000F73890F8F600401C094981F8F6000420A0
:1042300008700020D1E700004552523A204E5450F9
:1042400020697320656D707479200A0014020020C3
:10425000B000002010B5FFF70BF9044600BFFFF7D0
:1042600007F9001BB0F5167FF9D900F0A5FF10BDC6
:1042700010B500240E4890F8850000B910BD0DA0BF
:10428000FEF74EF90A48B0F8C010863001F02EF95A
:1042900004460748B0F8C000A04202D00DA0FEF7C7
:1042A0003FF9FFF7E5F80249C1F8C20000BFE5E7B2
:1042B000B00000205761726E696E673A2074696DB4
:1042C000656F75742C20726573656E64206461740B
:1042D00061200A004552523A20726573656E64206F
:1042E00064617461206572726F720A0010B50246D3
:1042F0000024002302B109B9002010BD022303E00D
:10430000D05C2044C4B25B1C481E9842F8D82046BA
:10431000F3E7000070B504460D462CB90FA0FEF778
:10432000FFF84FF0FF3070BD42211248FBF735FF18
:104330002A4621460F48801CFBF716FF0D4884389B
:10434000A0F8C050012180F88510FFF791F80949C5
:104350008439C1F8C2000020E5E700004552523A16
:10436000206461746120697320656D707479200A1E
:10437000000000003401002070B50446094D2CB93E
:1043800009A0FEF7CDF84FF0FF3070BD2879401C32
:104390002179884204D142210248801EFBF7FDFEAC
:1043A0000020F2E7360100204552523A2064617441
:1043B0006120697320656D707479200A0000000027
:1043C00070B504460D46002624B90AA0FEF7A8F8E9
:1043D000701E70BD2A4621460E4800F093FF064627
:1043E000AE4205D00CA0FEF79BF84FF0FF30F0E78F
:1043F0003046EEE74552523A2067697A5075744468
:104400006174612062756620697320656D707479CE
:10441000200A0000640200204552523A2046616999
:104420006C656420746F2072625772697465200A2B
:1044300000000000F0B585B005460E461746002482
:104440002EB91EA0FEF76CF8601E05B0F0BD6846E0
:10445000FFF7B8FA05208DF80400224890F87C1088
:10446000C06F401C1F4AD067C8B28DF805008DF898
:1044700008500D20FEF75CFDADF802003A463146CB
:104480000DF10900FBF770FE11216846FFF72EFFC2
:104490008DF810001121684601F028F80446002C20
:1044A00006DA214610A0FEF73BF86FF00100CCE7DA
:1044B00011216846FFF72EFF2046C6E767697A524A
:1044C00065706F727444617461204572726F7220FE
:1044D0002C20496C6C6567616C20506172616D0ABB
:1044E00000000000B00000204552523A2075617271
:1044F00074207772697465206572726F722025640A
:10450000200A00002DE9F04704460D461746089E94
:104510004FF00009CA46C8461BB94FF0FF30BDE84E
:10452000F08739462846FEF72FFD8046B8F1000F88
:1045300007D1185D05F0070106FA01F10843185587
:104540001EE0B8F1010F1BD1F0B205F00701C1F177
:10455000080140FA01F905F00700C0F10801FF2049
:10456000084100EA060A601C185C40EA0900611C68
:104570005854185D05F007010AFA01F1084318556F
:104580000020CCE72DE9F04F8FB005460C461646CB
:104590009946189F4FF0000AD34600200E9080469F
:1045A000B9F1000F00D027B94FF0FF300FB0BDE8D0
:1045B000F08F3A46494601A8FBF7D6FD012F09D9ED
:1045C000394601A8FEF7F5FCB0F1FF3F02D14FF0EC
:1045D000FF30EBE731462046FEF7D6FC8246BAF1C3
:1045E000000F0CD101A8405D04F007010841C6F19D
:1045F0000802FF211141084040EA080821E0BAF111
:10460000010F1ED101A9681C085C04F00701C1F16B
:104610000801711AC1F10802FF21114100EA010BE2
:1046200001A8405D04F0070108410E9004F0070066
:10463000C0F108010BFA01F040EA08080E9848EAB8
:1046400000084046B2E7000002480068401C0149EB
:10465000086070474C00002010B50346002002FBA4
:10466000031010BD10B503460020541AB4FBF3F03C
:1046700010BD00002DE9FF5F07460E4693464FF040
:1046800000083546B1463446B24607B126B94FF068
:10469000FF3004B0BDE8F09F4FF00008C4E0781C84
:1046A00010F80800172873D2DFE800F0838485B87B
:1046B000B8868A8B8CB8B8B8B88D97AC930C223575
:1046C0004562730028785B490870084601785AA053
:1046D000FDF726FF57480078012804D15548007897
:1046E0005B49087003E0534800785949087096E028
:1046F0006878504948700846417856A0FDF710FF89
:104700004C484078012802D15949087002E0002045
:104710005749087083E0D5F802004649C1F8020005
:104720000846D0F8021053A0FDF7FAFE4148807801
:104730005749087073E0D5F806003E49C1F80600F5
:104740000846D0F8061053A0FDF7EAFE404800786E
:1047500050B938488079554908700978642201FBBE
:1047600002F0FDF799FB02E000205049087056E086
:10477000D5F80A002F49C1F80A000846D0F80A10F7
:104780004BA0FDF7CDFE2B48807A4E49087046E0DD
:1047900044E0D5F80E002749C1F80E000846D0F8CD
:1047A0000E1049A0FDF7BCFE2248807B4B490870E3
:1047B00035E034E033E032E00120494908702EE072
:1047C0002DE02CE02BE099F8001046A0FDF7A8FEA4
:1047D00025E047A0FDF7A4FE21E0A17962792379C5
:1047E000A068CDE90032CDE90210E378A2782188F3
:1047F00044A0FDF795FE20794D49087060794D4938
:1048000008700CE04CA0FDF78BFE50A0FDF788FE71
:104810009AF8001051A0FDF783FE00E000BF00BF32
:1048200008F1010000F0FF08387840453FF737AF46
:1048300000202EE7930000204576743A2045564527
:104840004E545F537769746368202564200A000022
:104850000E0000204576743A204556454E545F536D
:10486000776974636874696D65202564200A0000A7
:104870000F0000204576743A4556454E545F475F19
:1048800074656D705F6E65742025640A0000000019
:10489000000000204576743A4556454E545F6661E7
:1048A0006E73706565642025640A00000D000020A9
:1048B0004576743A4556454E545F486F75722025CB
:1048C000640A00001A0000204576743A4556454EA9
:1048D000545F4D696E742025640A00001B0000209F
:1048E00048000020525353492025640A000000006C
:1048F0005452414E53504152454E545F44415441ED
:10490000200A0000574946495F4E5450203A205B28
:1049100025642D25642D256420253032643A253008
:1049200032643A253032645D5B25645D200A000004
:1049300018000020190000204D4F44554C452049D7
:104940004E464F202E2E2E0A0000000057494620CA
:104950004D4F44554C45202E2E2E0A006D6F647528
:104960006C6554797065203A205B25645D200A00EF
:104970003EB500246846FFF725F817208DF804009F
:10498000124890F87C10C06F401C104AD067C8B223
:104990008DF805000520FEF7CBFAADF802000921DD
:1049A0006846FFF7A3FC8DF808000921684600F06F
:1049B0009DFD0446002C03DA214605A0FDF7B0FD5D
:1049C00009216846FFF7A6FC3EBD0000B0000020AC
:1049D0004552525B4E54505D3A2075617274207797
:1049E00072697465206572726F72202564200A00F6
:1049F0002DE9F041A0B0054600260020029001906C
:104A000000248046002735B982A0FDF789FD601E8D
:104A100020B0BDE8F081FEF731FD02AA8749884841
:104A2000FEF7D2FE0646002E71D186A0FDF778FD76
:104A3000824C20790F284FD00ADC0E2873D2DFE891
:104A400000F07216721A7272433872724472453CE8
:104A5000182852D006DC112847D0142846D0162832
:104A600061D134E0222854D02A285CD130E020469D
:104A7000FEF7ECFD5FE0E279A17977A0FDF750FD4C
:104A800001A8009007F10900BDF808301A1A6B4818
:104A90000830C11903AB4046FFF75CF840B9E37931
:104AA00003A92046019AFEF7B5FF6FA0FDF738FD78
:104AB00041E02046FEF728FD3DE02046FEF724FDBC
:104AC0002046FFF7FFF836E000BF00BF00BF00BF81
:104AD0002046FFF751FC2EE02046FEF715FD65A0AD
:104AE000FDF71EFDFFF7B6FB25E024E02046FFF7AB
:104AF00043FC65A0FDF714FD1DE02046FFF73CFCDC
:104B00002046FFF761FB68A0FDF70AFD13E013E004
:104B100009E02046FFF730FC2046FFF7A5F868A023
:104B2000FDF7FEFC07E002212046FEF73DFD6BA0ED
:104B3000FDF7F6FC00BF0DE016F1020F0AD13F4C65
:104B400001212046FEF730FD6AA0FDF7E9FC6FF079
:104B500001005DE73948401E0078062852D2DFE8A0
:104B600000F051031425304100203449491E0870DB
:104B70001A2201F22D11A1F16700FFF77BFD182128
:104B80002E48C530FBF709FB3DE000202B49491EAC
:104B90000870012201F26111A1F18300FFF76AFDA3
:104BA00018212648DD30FBF7F8FA2CE000202349D5
:104BB000491E087008463B31826FC630FFF75AFD28
:104BC00021E000201D49491E08700C2201F5B27138
:104BD000A1F16E00FFF74EFD18211848F530FBF7E4
:104BE000DCFA10E000201549491E0870412201F549
:104BF000B871A1F16200FFF73DFD41214348FBF789
:104C0000CCFA00E000BF00BF2846FEF7D3FB00202F
:104C1000FEE6000047697A7769747348616E646CD8
:104C200065204572726F72202C20496C6C6567613B
:104C30006C20506172616D0A00000000B10000201C
:104C400064020020476574204F6E65205061636BDD
:104C50006574210A00000000666C616720257820D9
:104C60002578200A0000000041636B4461746120D4
:104C70003A200A007265706F72743A4D4355207283
:104C800065626F6F74210A0041636B2050524F447C
:104C9000554354494F4E5F4D4F44452073756363F0
:104CA000657373200A00000041636B204745545F21
:104CB0005554542073756363657373200A000000B4
:104CC00041636B204745545F4D6F64756C6520737D
:104CD000756363657373200A000000004552523A01
:104CE00020636D6420636F6465206572726F72214A
:104CF0000A0000004552523A20636865636B2073D6
:104D0000756D206572726F72210A0000BE0100206D
:104D100010B574200A4908600A48C860084600F0C7
:104D200095FA18B908A0FDF7FBFB02E00BA0FDF710
:104D3000F7FB4FF4DA710E48FBF72FFA10BD0000B5
:104D4000640200207402002072624372656174651F
:104D50002053756363657373200A000072624372A7
:104D600065617465204661696C64200A000000007A
:104D7000B000002030B587B005460024062D7CD257
:104D8000DFE805F0032E5B8AB5E001A8FEF71AFE06
:104D90000B208DF80800854890F87C10C06F401CEF
:104DA000824AD067C8B28DF809000520FEF7C0F826
:104DB000ADF80600092101A8FFF798FA8DF80C005C
:104DC000092101A800F092FB0446002C03DA2146D9
:104DD00077A0FDF7A5FB092101A8FFF79BFAE0E00A
:104DE00004A8FEF7EFFD09208DF814006F4890F835
:104DF0007C10C06F401C6D4AD067C8B28DF815009A
:104E00008DF818500620FEF793F8ADF812000A212D
:104E100004A8FFF76BFA8DF819000A2104A800F026
:104E200065FB0446002C03DA214661A0FDF778FB00
:104E30000A2104A8FFF76EFAB3E004A8FEF7C2FD4A
:104E400009208DF81400594890F87C10C06F401C60
:104E5000564AD067C8B28DF815008DF81850062054
:104E6000FEF766F8ADF812000A2104A8FFF73EFA33
:104E70008DF819000A2104A800E08EE000F036FB4E
:104E80000446002C03DA214649A0FDF749FB0A211C
:104E900004A8FFF73FFA84E001A8FEF793FD132072
:104EA0008DF80800414890F87C10C06F401C3F4AC4
:104EB000D067C8B28DF809000520FEF739F8ADF8C3
:104EC0000600092101A8FFF711FA8DF80C0009214D
:104ED00001A800F00BFB0446002C03DA214634A0A5
:104EE000FDF71EFB092101A8FFF714FA59E001A8FC
:104EF000FEF768FD15208DF808002C4890F87C100E
:104F0000C06F401C294AD067C8B28DF8090005203F
:104F1000FEF70EF8ADF80600092101A8FFF7E6F943
:104F20008DF80C00092101A800F0E0FA0446002CDD
:104F300003DA21461EA0FDF7F3FA092101A8FFF7C5
:104F4000E9F92EE001A8FEF73DFD29208DF80800C3
:104F5000164890F87C10C06F401C144AD067C8B245
:104F60008DF809000520FDF7E3FFADF806000921E3
:104F700001A8FFF7BBF98DF80C00092101A800F08A
:104F8000B5FA0446002C03DA214609A0FDF7C8FA59
:104F9000092101A8FFF7BEF903E00CA0FDF7C0FA54
:104FA00000BF00BF204607B030BD0000B0000020A9
:104FB0004552523A20756172742077726974652087
:104FC0006572726F72202564200A00004552523AC1
:104FD000204366674D6F6465206572726F72210AA7
:104FE000000000001CB5FCF7C5FE4820FDF71AFFC5
:104FF0004FF4A060FCF7A2FBFCF7BEF9FBF7C4FC82
:10500000FCF738F8FCF7C2FFFCF7F2FE41F61F414F
:105010000920FCF7D7FFFCF731FC4FF4165000F0E5
:10502000BFF94FF4165000F00FFAFBF7FDFC00F04B
:10503000ABFAFFF76DFEFCF7D4F94FF480504C4902
:1050400008614EF67D70FCF7B3F9FDF757FAFBF7F0
:10505000FFFF4FF480514748FBF71CFF4FF4FA70F5
:10506000FDF7FEFE4FF480514248FBF711FF4FF46D
:10507000FA70FDF7F5FE0020FCF70EFF76E000F079
:10508000C1FA3D480078012827D101210420FCF70E
:105090005FFC4FF48070ADF8040010208DF807001D
:1050A00003208DF8060001A93248FBF75DFE334866
:1050B0000078012811D1002030490870FCF748FB26
:1050C0002F480078FBF745F92E4908602E48006804
:1050D000486001212D48FCF7B4FF2748007888B9C3
:1050E00001210420FCF734FC4FF48070ADF804007B
:1050F00018208DF8070003208DF8060001A91D482F
:10510000FBF732FE00F01EFA2148FFF771FCFBF7B7
:10511000EFFF20480078012828D100201D490870A1
:10512000FCF7CEFCFBF75CFDFBF790FDFCF7B8FD50
:10513000FCF798FCFFF71CFC1748007828B11748CB
:10514000007810B1012016490870144803781248FD
:10515000027814A11748FDF7F3F916484EF67D734F
:105160001F22642100900020FBF796FE87E70000D5
:1051700000100140000801400E0000204400002003
:1051800000000020E802002004000020000400408D
:105190009300002045000020180000201900002086
:1051A00048000020775F74696D653A25643A25648C
:1051B0000000000084000020012080F3138800BF5D
:1051C00000BF0748006800F4E06006490843001D7E
:1051D00003490860BFF34F8F00BF00BFFEE7000028
:1051E0000CED00E00000FA0500B5024612B94FF0E0
:1051F000FF3000BD50689168884201D10020F8E777
:1052000050689168884203D290685168401AF0E76C
:10521000104600F014F851689368C91A401AE8E77C
:1052200030B5044614B94FF0FF3030BD204600F0D1
:1052300006F805462046FFF7D7FF281AF5E701468E
:1052400011B94FF0FF3070470868FCE7014611B90B
:105250004FF0FF307047C8684860C8688860002019
:10526000F8E72DE9F04104460F461646002514B92B
:10527000681EBDE8F08117B94FF0FF30F9E76068AC
:10528000A168884214D22046FFF7AEFFB04201D990
:10529000304602E02046FFF7A7FF054661682A4630
:1052A0003846FAF761FF6068284460602846E0E706
:1052B0002046FFF7C4FF6168E268891A401AB042CD
:1052C0000AD9354661682A463846FAF74DFF6068C4
:1052D000284460602846CCE72046FFF7B0FF6168AD
:1052E000E268891A451A61682A463846FAF73CFF8F
:1052F000E0686060721B79192046FFF7B2FF054431
:105300002846B6E72DE9F04104460F46154600262B
:1053100004B11FB94FF0FF30BDE8F0812046FFF720
:105320007FFFA84202D86FF00100F5E76068A1682E
:1053300088422AD82046FFF782FFA168E268891ACE
:10534000461AB54213D8A0682A463946FAF70CFF28
:10535000A0682844A0602046FFF771FFE168084478
:10536000A168884201D1E068A0602846D4E7A0681F
:1053700032463946FAF7F8FEE068A060AA1BB91970
:105380002046FFF7BFFF3044C6E7A0682A463946EB
:10539000FAF7EAFEA0682844A0602846BCE70000AF
:1053A00010B586B00446012144F20500FCF7D0FA9E
:1053B0002348FCF781FF4FF40070ADF81400032080
:1053C0008DF8160018208DF8170005A91D48FBF769
:1053D000CBFC4FF48060ADF8140004208DF817006A
:1053E00005A91848FBF7C0FC01940020ADF808009F
:1053F000ADF80A00ADF80C00ADF810000C20ADF8C7
:105400000E0001A90E48FDF701F801210C48FCF738
:1054100047FF012240F225510948FCF7D2FF252021
:105420008DF8000002208DF8010003208DF80200A5
:1054300001208DF803006846FCF748F906B010BD5E
:10544000003801400008014010B586B00446012133
:105450000520FCF77DFA01214804FCF759FA0420E5
:10546000ADF8140003208DF8160018208DF81700F1
:1054700005A91C48FBF778FC0820ADF814000420AF
:105480008DF8170005A91748FBF76EFC26208DF84C
:10549000000003208DF8010004208DF80200012097
:1054A0008DF803006846FCF711F901940020ADF86F
:1054B0000800ADF80A00ADF80C00ADF810000820A7
:1054C000ADF80E0001A90848FCF7A0FF012240F248
:1054D00025510548FCF775FF01210348FCF7E0FE64
:1054E00006B010BD000801400044004070B50546FC
:1054F0000E4600240DB9601E70BD00241BE0295D1E
:105500000F48FCF7F4FF00BF40210D48FCF722FFD5
:105510000028F9D0022C0DD3285DFF280AD155218F
:105520000748FCF7E4FF00BF40210548FCF712FFE5
:105530000028F9D0641CB442E1D33046DCE7000017
:105540000038014010B50B4800780B4908700B4833
:10555000007848700A480068FAF700FF0649C1F869
:10556000120008480068FAF7F9FE0349C1F816006E
:1055700010BD00000E000020930000200F0000204E
:10558000040000200800002010B51A211448FAF782
:1055900004FE1448007812490870134800784870D7
:1055A00012480078C1F8020011480078C1F80600DE
:1055B00010480078C1F80A000F480078C1F80E00C2
:1055C0000E480068FAF7CAFE0549C1F812000C48F7
:1055D0000068FAF7C3FE0249C1F8160010BD0000CA
:1055E000930000200E0000200F000020000000208B
:1055F0000D0000201A0000201B00002004000020E5
:105600000800002010B501212E48FBF75DFD80B990
:1056100000BF01212B48FBF757FD0028F9D00020DF
:105620002949087009202949087040F2E730FCF741
:1056300033FC02212348FBF747FD68B900BF022174
:105640002048FBF741FD0028F9D000201E490870D2
:105650001E490870FCF720FC04211A48FBF734FDB2
:10566000A0B900BF02211748FBF72EFD0028F9D092
:1056700000201549087015480078401C134908702F
:105680000978642201FB02F0FCF706FC08210D48B2
:10569000FBF71AFDA0B900BF02210A48FBF714FD71
:1056A0000028F9D000200849087008480078401EFA
:1056B000064908700978642201FB02F0FCF7ECFB54
:1056C00010BD0000001C01400E0000200D00002055
:1056D00000000000000000000000000000000000CA
:1056E000001010101010101010100000101000000A
:1056F00000006C6C24240000000001000000000089
:105700000024242424FE48484848FC9090909000AF
:1057100000103C5492905038141212925478100099
:105720000000225C94A8481010242A5254880000DB
:10573000000030484850206E54948C888A740000D1
:1057400000003030101000000000000000000000D9
:105750000004081010202020202020101008040031
:1057600000804020201010101010102020408000D9
:1057700000000000105438103854100000000000E1
:1057800000000010101010FE10101010000000009B
:1057900000000000000000000000000010102000C9
:1057A00000000000000000FE0000000000000000FB
:1057B00000000000000000000000000010100000C9
:1057C00000000404080810102020404080800000E1
:1057D00000003844828282828282828244380000C1
:1057E000000010701010101010101010107C00002D
:1057F00000003844828204081020408284FC0000AB
:105800000000384482020438040202824438000056
:105810000000040C141424244444FE04040E00006C
:105820000000FC808080B8C482020282847800007C
:1058300000003C428280B8C48282828244380000E8
:1058400000007E42820404080808101010100000B6
:105850000000384482824438448282824438000006
:105860000000384482828282463A02824438000034
:1058700000000000101000000000101000000000E8
:1058800000000000101000000000001010200000B8
:10589000000000000618608060180600000000008C
:1058A000000000000000FE0000FE000000000000FC
:1058B00000000000C0300C020C30C00000000000EE
:1058C00000384482820204081010100010100000FA
:1058D00000003844829AAAAAAAAAAA9680423C004A
:1058E000000010101028282844447C4444EE000096
:1058F0000000FC424242427C4242424242FC0000E2
:1059000000003C4482808080808082824438000095
:105910000000F844424242424242424244F80000FF
:105920000000FC444240447C4440404244FC0000AF
:105930000000FC444240447C4440404040F00000B1
:105940000000344C828080808E8484844C3400003B
:105950000000EE444444447C4444444444EE00008B
:1059600000007C101010101010101010107C00009F
:1059700000003E0808080808080808888870000029
:105980000000EE44484850605048484444EE00004F
:105990000000E040404040404040404244FC0000A5
:1059A0000000C6446C6C6C545454444444EE0000F3
:1059B0000000CE4464646454544C4C4C44E40000F5
:1059C00000003844828282828282828244380000CF
:1059D0000000F844424242447840404040E0000029
:1059E0000000384482828282828282BA443C020071
:1059F0000000F048444444487048444444E60000F1
:105A000000003C44828040300C0202824478000056
:105A100000007C549210101010101010103800006C
:105A20000000EE44444444444444444444380000A8
:105A30000000EE4444444428282828101010000098
:105A40000000EE445454545454542828282800008C
:105A50000000EE44442828101028284444EE00009A
:105A60000000EE44442828281010101010380000C0
:105A700000007E44840808102020408284FC00003E
:105A8000001C1010101010101010101010101C001E
:105A90000000EE445454FE54545428282828000092
:105AA0000070101010101010101010101010700056
:105AB00000304884000000000000000000000000EA
:105AC0000000000000000000000000000000FE00D8
:105AD0000040200000000000000000000000000066
